:100000000C9462000C948A000C948A000C948A0070
:100010000C948A000C948A000C948A000C948A0038
:100020000C948A000C948A000C948A000C948A0028
:100030000C948A000C948A000C948A000C948A0018
:100040000C9429030C948A000C948A000C948A0066
:100050000C948A000C948A000C948A000C948A00F8
:100060000C948A000C948A000000000024002700F1
:100070002A0000000000250028002B0000000000DE
:1000800023002600290004040404040404040202DA
:100090000202020203030303030301020408102007
:1000A0004080010204081020010204081020000012
:1000B0000008000201000003040700000000000027
:1000C0000000530411241FBECFEFD8E0DEBFCDBF28
:1000D00011E0A0E0B1E0E2EFF8E002C005900D927F
:1000E000A435B107D9F721E0A4E5B1E001C01D9224
:1000F000A937B207E1F710E0C2E6D0E004C02197CB
:10010000FE010E947104C136D107C9F70E94730332
:100110000C9477040C940000AF92BF92CF92DF92C0
:10012000EF92FF920F931F93CF93DF936C017B01AC
:100130008B01040F151FEB015E01AE18BF08C0173D
:10014000D10759F06991D601ED91FC910190F081B0
:10015000E02DC6010995892B79F7C501DF91CF9173
:100160001F910F91FF90EF90DF90CF90BF90AF90D5
:100170000895833081F028F4813099F08230A9F01D
:1001800008958730A9F08830C9F08430B1F48091A7
:1001900080008F7D03C0809180008F7780938000E6
:1001A000089584B58F7784BD089584B58F7DFBCF86
:1001B0008091B0008F778093B00008958091B00057
:1001C0008F7DF9CFCF93DF93282F30E0F901E255EF
:1001D000FF4F8491F901E656FF4FD491F901EA5798
:1001E000FF4FC491CC23A1F081110E94B900EC2FE4
:1001F000F0E0EE0FFF1FE458FF4FA591B491EC9192
:10020000ED2381E090E009F480E0DF91CF91089543
:1002100080E090E0FACF1F93CF93DF93282F30E058
:10022000F901E255FF4F8491F901E656FF4FD49151
:10023000F901EA57FF4FC491CC23A9F0162F811181
:100240000E94B900EC2FF0E0EE0FFF1FEE58FF4FB9
:10025000A591B4918FB7F894EC91111108C0D09585
:10026000DE23DC938FBFDF91CF911F910895DE2BAA
:10027000F8CFCF93DF9390E0FC01E656FF4F249137
:100280008A579F4FFC0184918823D1F090E0880F1A
:10029000991FFC01E859FF4FA591B491FC01EE585C
:1002A000FF4FC591D49161110EC09FB7F8948C9106
:1002B000E22FE0958E238C932881E223E8839FBF71
:1002C000DF91CF9108958FB7F894EC91E22BEC93E6
:1002D0008FBFF6CF3FB7F8948091590190915A01A2
:1002E000A0915B01B0915C0126B5A89B05C02F3F92
:1002F00019F00196A11DB11D3FBFBA2FA92F982F4C
:100300008827BC01CD01620F711D811D911D42E046
:10031000660F771F881F991F4A95D1F708958F920E
:100320009F92AF92BF92CF92DF92EF92FF924B01DA
:100330005C010E946A016B017C010E946A016C19D8
:100340007D098E099F09683E734081059105A8F3D8
:1003500021E0821A9108A108B10888EEC80E83E056
:10036000D81EE11CF11C81149104A104B10429F7E9
:10037000FF90EF90DF90CF90BF90AF909F908F90C5
:100380000895089590E080E00895FC010190002018
:10039000E9F73197AF01481B590BBC0181E691E0A9
:1003A0000C948C00CF93DF93EC0160E08E810E946F
:1003B0000B0161E08E810E940B0160E08E810E9442
:1003C0000B018BE891E00197F1F7DF91CF91089550
:1003D000CF92DF92EF92FF920F931F93CF93DF9311
:1003E0006C017C0187E0E80EF11CD0E0C0E0062F34
:1003F00010E0B8010C2E02C0759567950A94E2F7DB
:100400006170F70181917F010E940B012196C43038
:10041000D10579F7C601DF91CF911F910F91FF9020
:10042000EF90DF90CF900C94D201CF92DF92EF92B9
:10043000FF920F931F93CF93DF93EC01F62E642F5F
:100440008C810E940B018D818F3F19F060E00E942A
:100450000B010F2D10E08F8584FF25C06E0187E012
:10046000C80ED11CF12CE12CB8010E2C02C07595E0
:1004700067950A94E2F76170F60181916F010E941D
:100480000B01FFEFEF1AFF0A88E0E816F10461F7AD
:10049000CE01DF91CF911F910F91FF90EF90DF90F0
:1004A000CF900C94D201B80184E0759567958A9538
:1004B000E1F7CE010E94E8016F2DCE01DF91CF91CF
:1004C0001F910F91FF90EF90DF90CF900C94E80177
:1004D000CF93DF93823029F49091700198609093CC
:1004E0007001809374011092750180E4809376010D
:1004F00080E18093770180E58093780161E08091CD
:1005000065010E943901809166018F3F19F061E019
:100510000E94390161E0809167010E943901C1E6C2
:10052000D1E09E01215631408091700184FD0BC0C5
:1005300084E090E021962817390744F461E08E8129
:100540000E943901EECF88E090E0F4CF8BE39DE08C
:100550000197F1F760E0809165010E940B0160E076
:10056000809167010E940B01809166018F3F19F015
:1005700060E00E940B016091700164FD45C063E082
:1005800081E691E00E94E801CBE4D6E4CE01019738
:10059000F1F763E081E691E00E94E8012197F1F72D
:1005A00063E081E691E00E94E80183E592E0019733
:1005B000F1F762E081E691E00E94E801609170014C
:1005C000606240E081E691E00E94150284E0809341
:1005D000710140E06CE081E691E00E94150240E08C
:1005E00061E081E691E00E9415028BE39FE10197B3
:1005F000F1F782E08093720140E066E081E691E0ED
:10060000DF91CF910C941502606240E081E691E0A9
:100610000E9415028BE496E40197F1F76091700156
:10062000606240E081E691E00E94150283E592E07D
:100630000197F1F760917001606240E081E691E01E
:100640000E941502BBCF41E00E94150281E090E0BC
:1006500008951F920F920FB60F9211242F933F937C
:100660008F939F93AF93BF938091550190915601C3
:10067000A0915701B09158013091540123E0230F0C
:100680002D3758F50196A11DB11D2093540180937B
:10069000550190935601A0935701B0935801809152
:1006A000590190915A01A0915B01B0915C010196B2
:1006B000A11DB11D8093590190935A01A0935B0134
:1006C000B0935C01BF91AF919F918F913F912F911A
:1006D0000F900FBE0F901F90189526E8230F0296DB
:1006E000A11DB11DD2CF789484B5826084BD84B53C
:1006F000816084BD85B5826085BD85B5816085BD1D
:1007000080916E00816080936E00109281008091D4
:10071000810082608093810080918100816080935C
:100720008100809180008160809380008091B10081
:1007300084608093B1008091B00081608093B000AC
:1007400080917A00846080937A0080917A00826040
:1007500080937A0080917A00816080937A00809102
:100760007A00806880937A001092C10082E00E9433
:1007700068028CE091E00E94C50161E08DE00E947A
:10078000390161E08AE00E94390161E087E00E945E
:10079000390160E089E00E94390160E088E00E9450
:1007A000390160E086E00E94390160E08DE00E943E
:1007B0000B0160E08AE00E940B0182E191E00E945F
:1007C000C50100E010E0FF24F39489E00E94E200FC
:1007D00021E0892B09F420E02093600162E370E0BE
:1007E00080E090E00E948F0186E00E94E20021E01C
:1007F000892B09F420E020935F0162E370E080E040
:1008000090E00E948F0188E00E94E200EC0181E00C
:10081000209709F480E080935E0164E670E080E058
:1008200090E00E948F01CD2B41F161E087E00E94B2
:100830000B0189E291E00E94C5018091600188234B
:1008400029F180915D01811123C080915F018111A7
:10085000F0925D0160E08AE00E940B0161E08DE0B2
:100860000E940B0183E491E00E94C501011511056E
:1008700009F4ABCF0E940000A8CF87E391E00E946B
:10088000C50160E087E00E940B01D7CF10925D01A7
:1008900061E08AE00E940B0160E08DE00E940B01A4
:1008A0008AE491E0E1CFE1E6F1E01382128284E094
:1008B00091E0918380838CE084838FEF85838BE04C
:1008C000868385E0878384E0808783E0818782E078
:1008D00082871386148615861686178681E00C9407
:1008E0006802EE0FFF1F0590F491E02D0994F89433
:0208F000FFCF38
:1008F2000000000023038C00C201C1017A69736108
:100902006E0073697374656D206261736C617469E2
:100912006C64692E2E2E2E2E00686172656B6574D2
:1009220020766172212100686172656B657420799D
:100932006F6B00476173732121004E6F726D616CA2
:040942006C21210003
:00000001FF
